:08000000803102288731FD2F39
:100E6E0016302100990008008F3025009300920162
:100E7E009101FC309E050800703021009B008030EF
:100E8E009C009A019D011C1F4D2F4E2F4A2F0800CA
:100E9E0001302900970096019801FF3094009301CC
:100EAE00200091108030290095000800873180279E
:100EBE00873187314327873187313727873187310C
:100ECE003B27873187314F2787310800FF30F005E8
:100EDE000330F1052500131E752F762F7B2F06305C
:100EEE00F035F10D890B772F710892007008910083
:100EFE00080022008C018D018E0108302100900027
:100F0E00FF308C00FB308D00FF308E007C302300D4
:100F1E008E003B308D003F308C00240090018D01FF
:100F2E008C0180308E002100971325008C018D01DD
:100F3E008E01FF3026008C00FF308D00FF308E00BA
:100F4E003F3027008C00F0308D00FF308E001530C2
:100F5E003D009A00080087315D278731F401F501C5
:100F6E007508F1007408F00087316D278731033062
:100F7E00F3000830F2007730890BC32FF20BC32F2A
:100F8E00F30BC32F00000130F4070030F53D750858
:100F9E00803AF20084307202031DD72F00307402A3
:100FAE00031CDA2FDB2FB72FFF30F6000330F700CC
:100FBE007708F1007608F00087316D27873103300E
:100FCE00F3000830F2007730890BEB2FF20BEB2F8A
:100FDE00F30BEB2F0000FF30F607FF30F73DF71F46
:100FEE00F92FFA2FDF2FB52F8031022820008731FD
:020FFE00B22F10
:020000040001F9
:08000000FF3FFF3FFF3FFF3F00
:04000E00E43FFF1FAD
:00000001FF
